:1078000011241FBECFEFDAE0DEBFCDBFFFC04101C4
:1078100042144505560455026403740300001E9586
:1078200087020110030000C18081C106C0FF0A0069
:107830000CA10185037508150026FF00954009017C
:107840008102954009029102C0040309041A033021
:1078500000300030003000300030003000300031A7
:1078600000370030003100380341007200640075B9
:107870000069006E006F0020004C0065006F006E14
:10788000006100720064006F00200062006F006FF2
:107890000074006C006F00610064006500720018E5
:1078A00003410072006400750069006E006F0020E3
:1078B000004C004C00430012010002020000404155
:1078C0002334000001000203011201000200000045
:1078D0004041233400000100020301090264000357
:1078E00001008032080B00020202010009040000BE
:1078F0000102020000052400100105240101010419
:107900002402020524060001070581031000400936
:10791000040100020A0000000705020240000007FF
:107920000583024000000904020001030000000971
:107930002101010001221E000705840340004000D0
:1079400020918A0130918B012C5F3F4F30938B0146
:1079500020938A01C901892F99278695982F803411
:1079600018F08FE7891B982F990F921710F44798FA
:107970000895479A08955D9A289A81E08093E000DF
:107980001092E200EE27FF27099408950F931F93AA
:10799000CF93DF93982FEB01042F10E088E760303E
:1079A000780730F411E083E0FB0180935700E895FD
:1079B000892F68E071E0402FF8D0112311F107B64C
:1079C00000FCFDCF402F4695FE01A8E0B1E020E08D
:1079D00031E009C08D919D910C0130935700E895DD
:1079E000112432962F5F2417A8F385E0FE018093BF
:1079F0005700E89507B600FCFDCF81E18093570062
:107A0000E895DF91CF911F910F91089588E10FB60E
:107A1000F89480936000109260000FBE5D9A289ADF
:107A200047983F9A209A559A90E890936100109257
:107A3000610081E885BF95BF9FD084E18093880174
:107A400080E180938901E0E0F0E0859194918F5F7F
:107A50009F4F19F081E080938F01EE24FF24BB2417
:107A6000B39454EFC52E51E0D52E13D2082F8EE0DB
:107A700098E7FC012491319602964491201711F069
:107A80002223B9F7109291011092900182E068E0F0
:107A900071E08BD0013479F4609108016058633053
:107AA00028F0683111F064E001C063E0C62FD0E037
:107AB000CF5DD7480EC0063571F480910801803340
:107AC00011F011E022C080910A01C82FD0E0C25EFF
:107AD000D74811E022C0053721F413E0CEE1D8E702
:107AE0001CC0053539F4E0900801F0900901EE0C56
:107AF000FF1C0AC0043631F482E0B701409109014D
:107B000045DF02C0043721F010E0C5E2D8E705C028
:107B100010910901E701E10EF11CBBD18097B1F48E
:107B200083E068E871E041E050E059D0112329F08A
:107B3000412F50E083E8BE0152D083E469E871E050
:107B400041E050E04CD0013509F08FCFD092910147
:107B5000C0929001B0928F01EE24FF2486CFFC01E9
:107B6000289884E680938D0104C08091F100819370
:107B700061506623D1F708951092910110929001FF
:107B800010928E0110928F0181E08093D70080EADD
:107B90008093D80082E189BD09B400FEFDCF80E961
:107BA0008093D8001092E0000895FB018093E900D3
:107BB00024E69BE611C08091E80085FFFCCF289861
:107BC00020938D018091F10081938091E80085FDE3
:107BD00002C09093E8004150442369F70895982F1C
:107BE000FB01282F207287708093E90064E63AE356
:107BF00017C08091E80085FFFCCF97FF02C08491F9
:107C000001C080813196211180E05D9860938C01E4
:107C10008093F1008091E80085FD02C03093E80078
:107C2000415050408FEF4F3F580719F796FF03C060
:107C30008AE38093E800089580919301813299F45A
:107C40005D9884E680938C0120E030E003C0808161
:107C50008093F100F901E050FF4F2F5F3F4F283034
:107C60003105A9F714C0803261F48091E80082FFE9
:107C7000FCCF80E091E067E072DF8BEF8093E8005B
:107C800006C0823221F4809194018093070181E043
:107C9000089520919501223289F1213081F480915B
:107CA000980190919901089711F420939A0180917D
:107CB0009A01882309F04FC0E9ECF8E74EC0223062
:107CC00021F484E6EBEDF8E71CC0233009F041C055
:107CD00080919401882319F4E9E4F8E73EC08230EA
:107CE00019F4E7E6F8E739C0833019F4EDE4F8E772
:107CF00034C0813071F5EFE9F8E72FC081E0EBE2A5
:107D0000F8E790919801382F981708F4392F90913F
:107D10008C0120E04EEF8091E8008570E1F38091C6
:107D2000E80082FD12C02F5F84915D988093F1007E
:107D3000822F8F7311F44093E800319694E6231755
:107D400050F390938C0181E0089590938C0180E032
:107D5000089580E00895E7EBF8E78491D2CF109280
:107D6000E9008091E80083FF61C082E991E068E06A
:107D7000F6DE82EF8093E8008091920187FF05C0D4
:107D80008091E80080FFFCCF03C08EEF8093E80075
:107D900080919301853051F48091E80080FFFCCF01
:107DA0008091940180688093E30039C08930E1F4C8
:107DB0008091940180938E01E7E2F8E791E031E051
:107DC00026E39093E9003093EB0084918093EC00DC
:107DD0002093ED009F5F3196953099F78EE7809361
:107DE000EA001092EA001BC0883049F490918E019D
:107DF0005D9884E680938C019093F10010C08823F5
:107E000039F45D9884E680938C011092F10007C0EC
:107E1000863011F43EDF01C00FDF882321F08EEFA2
:107E20008093E800089581E28093EB0008958091AB
:107E3000E1001092E100282F83FF0CC01092E900AE
:107E400081E08093EB001092EC0082E38093ED00E0
:107E500010928E0122FF1CC080918C01882331F08A
:107E6000815080938C01882309F45D9A80918D0163
:107E7000882331F0815080938D01882309F4289A5A
:107E800080918F01882321F410929101109290012A
:107E900008951F93CF93DF9312E0C0E9D1E05FDF35
:107EA000C6DF1093E9008091E80085FF13C0289891
:107EB00084E680938D019091F1008091E80085FD2A
:107EC00003C08BE68093E800892F90E0DF91CF918B
:107ED0001F91089580919001909191010197909345
:107EE0009101809390018091900190919101892B53
:0E7EF00009F441DDCE010197F1F722DDD0CF7C
:087EFE0000E10000000000009B
:040000030000780081
:00000001FF
